:020000040000FA
:06000000ACEF18F0120045
:08000800D0BEC4EF18F0A3EF15
:0400100012F01200D8
:06001800A3EF12F012003C
:06002A000100A4310000FA
:0800300024040000110000008F
:1000E000E4EC11F083DAA6DA50DB7FDAF7DA21DB11
:1000F000E5EC11F0120001012A0511E10101225184
:10010000006E016A0150000AE8AE02D0D89004D017
:10011000FF0E005C000E015802E20101222B1200CA
:10012000D9CFE6FFDACFE6FFE1CFD9FFE2CFDAFFA2
:10013000E65201012A0573E1C00EF214DF6E800E53
:10014000D0143F09F21601012251000802E2010118
:1001500022070101225161E1010124515EE1FC0EFF
:10016000006E2B0E016E000E026E27C103F0046AB2
:10017000056A00500324F36E01500420F46E02500F
:100180000520F86EF4CFF7FFF3CFF6FF0800F5CFA8
:1001900023F1FC0E016E2B0E026E000E036E0101A8
:1001A0002351EA6A280FE96E010EEA22EFCF04F02C
:1001B000056A066A01500424F36E02500520F46EAD
:1001C00003500620F86EF4CFF7FFF3CFF6FF0800D8
:1001D000F5CF00F001012351080DF3500024010177
:1001E000266F010125510101265D17E0010126510D
:1001F000E96EEA6AD890E936EA369C0EE926010EE5
:10020000EA22EECF98F1EDCF99F10001B02B000E6C
:10021000B123B223B323ECEC12F0DF50F212E5521B
:10022000E552E5CFDAFFE7CFD9FF1200D9CFE6FFDD
:10023000DACFE6FFE1CFD9FFE2CFDAFFE6520101E4
:100240002A051AE1C00EF214DF6E800ED0143F09A9
:10025000F21601012451006E016A0150000AE8AE55
:1002600002D0D89004D0FF0E005C000E015802E2CC
:100270000101242BDF50F212E552E552E5CFDAFFFF
:10028000E7CFD9FF1200D9CFE6FFDACFE6FFE1CF03
:10029000D9FFE2CFDAFFE65201012A051CE1C00EC8
:1002A000F214DF6E800ED0143F09F21601012451C2
:1002B00000080FE2010124070101245107E10101B7
:1002C000225104E1DF50F212FEDA02D0DF50F212C6
:1002D00002D0DF50F212E552E552E5CFDAFFE7CF68
:1002E000D9FF1200D9CFE6FFDACFE6FFE1CFD9FF81
:1002F000E2CFDAFFE652E65201012A515CE1FC0E40
:10030000006E2B0E016E000E026E27C103F0046A10
:10031000056A00500324F36E01500420F46E02506D
:100320000520F86EF4CFF7FFF3CFF6FF0800F55085
:10033000DF6EFC0E006E2B0E016E000E026EDF50A3
:10034000EA6A280FE96E010EEA22EFCF03F0046A91
:10035000056A00500324F36E01500420F46E02502D
:100360000520F86EF4CFF7FFF3CFF6FF0800010E7B
:10037000F5CFDBFF010EDBCFE6FFDF50080DF350BA
:10038000E552E7240101266F26C125F1010126511E
:10039000E96EEA6AD890E936EA369C0EE926010E43
:1003A000EA22EECF98F1EDCF99F198C194F199C17D
:1003B00095F1E6EC11F0E552E552E552E5CFDAFFB2
:1003C000E7CFD9FF1200D9CFE6FFDACFE6FFE1CFC2
:1003D000D9FFE2CFDAFFE652020EE66EE66AEEECF5
:1003E0000DF0E552E552C00EF214DF6E800ED0140F
:1003F0003F09F21601012C6B2D6B2E6B2F6BDF501A
:10040000F212640EE66EE66AEEEC0DF0E552E5528D
:10041000C00EF214DF6E800ED0143F09F2162CC10C
:10042000B5F02DC1B6F02EC1B7F02FC1B8F0000164
:10043000010EBD6FDF50F212E552E552E5CFDAFF53
:10044000E7CFD9FF1200D9CFE6FFDACFE6FFE1CF41
:10045000D9FFE2CFDAFFE652E652E652D4EC11F0D1
:10046000C00EF214DF6E800ED0143F09F2160201A6
:10047000F42B000EF523F623F723DF50F2120101CF
:100480002A0501E0A0D0010E9AC1DBFF020E9BC13C
:10049000DBFF010EDBCFE9FF020EDBCFEAFF150E1B
:1004A000E926000EEA22EFCF00F0016A026A036A31
:1004B0000F0E001805E1015003E1025001E1035065
:1004C00001E181D0C00EF214DF6E800ED0143F091E
:1004D000F216010EDBCFE9FF020EDBCFEAFF120EB0
:1004E000E926000EEA22EE50ED105AE0010EDBCFB5
:1004F000E9FF020EDBCFEAFF120EE926000EEA2228
:10050000EE06000EED5AEECF00F0EDCF01F00050F8
:10051000011046E1010EDBCFE9FF020EDBCFEAFF5F
:10052000140EE926000EEA22EF50080B2CE1010E12
:10053000DBCFE9FF020EDBCFEAFF190EE926000E42
:10054000EA22EF5001012713010EDBCFE9FF020E73
:10055000DBCFEAFF180EE926000EEA22EFCF00F00B
:10056000010EDBCFE9FF020EDBCFEAFF170EE92613
:10057000000EEA22EF50EA6A280FE96E010EEA2225
:100580000050EF120DD0010EDBCFE9FF020EDBCFE2
:10059000EAFF120EE926000EEA22010EEE6EED6A67
:1005A000010EDBCFE9FF020EDBCFEAFF0E0EE926DC
:1005B000000EEA22010EEECFDBFF020EEDCFDBFFD5
:1005C000DF50F21266D7E552E552E552E552E5CF2B
:1005D000DAFFE7CFD9FF1200FC0E006E016A00C0FF
:1005E000F3FF01C0F4FF00D0120012000201F46B0F
:1005F000F56BF66BF76B0101226B0101246B0101B6
:100600002B6B01012A6B0001B06BB16BB26BB36B4A
:1006100001012C6B2D6B2E6B2F6B0001B96BBA6B2C
:10062000BB6BBC6B0001B56BB66BB76BB86B0001F5
:10063000BD6B1200D9CFE6FFDACFE6FFE1CFD9FFDD
:10064000E2CFDAFFE652E652E652E6520101276BAC
:10065000D9CFE9FFDACFEAFF020EE926000EEA223F
:10066000280EEE6E010EED6EDE6ADD6ADECF00F062
:10067000DDCF01F0026A036A0350000AE8AE02D03F
:10068000D89008D0020E005C000E0158000E0258EF
:10069000000E03580FE2020EDBCFE9FFDB2A030E48
:1006A000DBCFEAFF01E3DB2AEF6ADF2A010E01E379
:1006B000DB2ADCD70101256B0101266B0101986B58
:1006C000996B0101946B956BD9CFE1FFDACFE2FF13
:1006D000E552E5CFDAFFE7CFD9FF1200030EE66E51
:1006E000E66A000EE66EE66A640EE66EE66AE66AA2
:1006F000E66A930EE66E010EE66EE668E6680F0E99
:10070000E66E300EE66E010EE66E000EE66EE66AEE
:10071000C60EE66E090EE66E000EE66E4FEC0AF0AF
:10072000F56E140EE15C02E2E16AE552E16EF5500D
:100730001200030EE66EE66A000EE66EE66A640ECE
:10074000E66EE66AE66AE66A210EE66E010EE66E7F
:10075000FE0EE66EE6680E0EE66EBE0EE66E000E4D
:10076000E66E000EE66EE66A220EE66E0A0EE66E93
:10077000000EE66E4FEC0AF0F56E140EE15C02E23C
:10078000E16AE552E16EF5501200D9CFE6FFDACF0B
:10079000E6FFE1CFD9FFE2CFDAFFE652E652E652BA
:1007A000E652E65201019A6B9B6BDF6ADFCF00F0E5
:1007B000016A026A036A0350000AE8AE02D0D890C8
:1007C00008D0100E005C000E0158000E0258000EFA
:1007D00003580DE2EA6ADF34FE0BEA36E96E9C0E3E
:1007E000E926010EEA22EE6AED6ADF2ADFD7D9CFC9
:1007F000E9FFDACFEAFF010EE926000EEA22BC0E7D
:10080000EE6E010EED6ED9CFE9FFDACFEAFF030EEF
:10081000E926000EEA22D60EEE6E010EED6EDF6ABC
:10082000DFCF00F0016A026A036A0350000AE8AEF3
:1008300002D0D89008D00B0E005C000E0158000EBC
:100840000258000E035826E2010EDBCFE9FF020E2C
:10085000DBCFEAFF0E0EE926000EEA22030EDBCF05
:10086000EEFF040EDBCFEDFFD950010FE96E000E55
:10087000DA20EA6E1A0EEE26000EEF22D950030F90
:10088000E96E000EDA20EA6E1A0EEE26000EEF2256
:10089000DF2AC6D7010EDBCFE9FF020EDBCFEAFF6E
:1008A0000E0EEB6A0F0EEB6A0101BC0E966F010E85
:1008B000976FD9CFE1FFDACFE2FFE552E5CFDAFF5C
:1008C000E7CFD9FF1200D9CFE6FFDACFE6FFE1CFBD
:1008D000D9FFE2CFDAFFE652E652C00EF214DF6E25
:1008E000800ED0143F09F2160101225162E101018C
:1008F00024515FE1FC0E006E2B0E016E000E026EA5
:1009000027C103F0046A056A00500324F36E015006
:100910000420F46E02500520F86EF4CFF7FFF3CFF9
:10092000F6FF0800010EF5CFDBFFFC0E016E2B0E6B
:10093000026E000E036E010EDB50EA6A280FE96EAC
:10094000010EEA22EFCF04F0056A066A0150042482
:10095000F36E02500520F46E03500620F86EF4CFBB
:10096000F7FFF3CFF6FF0800F5CF00F0010EDB50E4
:10097000080DF35000240101266F010125510101EA
:10098000265D17E001012651E96EEA6AD890E93642
:10099000EA369C0EE926010EEA22EECF98F1EDCF61
:1009A00099F10001B02B000EB123B223B32328EC40
:1009B00012F0DF50F212E552E552E552E5CFDAFFD0
:1009C000E7CFD9FF1200D9CFE6FFDACFE6FFE1CFBC
:1009D000D9FFE2CFDAFFE652FC0EDBCF1AF0FD0EB4
:1009E000DBCF1BF0FC0E1AC0DBFFFD0E1BC0DBFFD4
:1009F000C00EF214DF6E800ED0143F09F216010112
:100A00002C2B000E2D232E232F23DF50F212E3EC8C
:100A100011F0EED7E552E552E5CFDAFFE7CFD9FF87
:100A20001200D9CFE6FFDACFE6FFE1CFD9FFE2CF60
:100A3000DAFF0A0EE12402E3E168E652E16EFC0E01
:100A4000DBCF1AF0FD0EDBCF1BF0FC0E1AC0DBFF74
:100A5000FD0E1BC0DBFF0001BD5108E1C80EE66EB4
:100A6000E66AEEEC0DF0E552E552F5D7B5C018F0A8
:100A7000B6C019F0B7C01AF0B8C01BF0640E1D6EF6
:100A80001E6A1F6A206A2AEC18F0050E18C0DBFFE8
:100A9000060E19C0DBFF070E1AC0DBFF080E1BC0D5
:100AA000DBFFC00EF214DF6E800ED0143F09F21689
:100AB0002CC1B9F02DC1BAF02EC1BBF02FC1BCF0D2
:100AC000010E2CC1DBFF020E2DC1DBFF030E2EC178
:100AD000DBFF040E2FC1DBFF01012C6B2D6B2E6B96
:100AE0002F6BDF50F212D950050FE96E000EDA209D
:100AF000EA6E000ED880EE54000EEE54000EEE5456
:100B0000000EEE5442E2640E046E056A066A076A3D
:100B1000010EDBCF08F0020EDBCF09F0030EDBCFB6
:100B20000AF0040EDBCF0BF008C018F009C019F072
:100B30000AC01AF00BC01BF0050EDBCF1DF0060E2D
:100B4000DBCF1EF0070EDBCF1FF0080EDBCF20F04F
:100B50002AEC18F01850045C006E19500558016E0C
:100B60001A500658026E1B500758036E090E00C03B
:100B7000DBFF090EDBCF00F0003404E2090EDBCF0F
:100B8000B4F002D00001B46B1DD00001B46BB5C04D
:100B900018F0B6C019F0B7C01AF0B8C01BF0640E58
:100BA0001D6E1E6A1F6A206A2AEC18F0050E18C016
:100BB000DBFF060E19C0DBFF070E1AC0DBFF080EB5
:100BC0001BC0DBFFD3EC11F0640EE66EE66AEEECC0
:100BD0000DF0E552E55265D7D9CFE1FFDACFE2FF5C
:100BE000E552E5CFDAFFE7CFD9FF1200D9CFE6FF14
:100BF000DACFE6FFE1CFD9FFE2CFDAFFE652E652E5
:100C0000E652C00EF214DF6E800ED0143F09F216C9
:100C1000010E96C1DBFF020E97C1DBFFD950010F19
:100C2000E96E000EDA20EA6EEE50ED1001E1A4D17B
:100C3000010EDBCFE9FF020EDBCFEAFF0E0EE92645
:100C4000000EEA22EECF96F1EDCF97F1DF50F212CF
:100C5000010EDBCFE9FF020EDBCFEAFFFB0EDBCF9D
:100C6000EEFFFC0EDBCFEDFF010EDBCFE9FF020E46
:100C7000DBCFEAFF150EE926000EEA22FD0EDBCFE0
:100C8000EFFF010EDBCFE9FF020EDBCFEAFF140E10
:100C9000E926000EEA22EF6A010EDBCFE9FF020E21
:100CA000DBCFEAFF120EEB6A130EEB6A010EDBCF0D
:100CB000E9FF020EDBCFEAFF020EE926000EEA2270
:100CC000F10EDBCFEEFFF20EDBCFEDFF010EDBCF3F
:100CD000E9FF020EDBCFEAFF060EE926000EEA224C
:100CE000F30EDBCFEEFFF40EDBCFEEFFF50EDBCF26
:100CF000EEFFF60EDBCFEEFF010EDBCFE9FF020EBB
:100D0000DBCFEAFF040EE926000EEA22F90EDBCF64
:100D1000EEFFFA0EDBCFEDFF010EDBCFE9FF020E97
:100D2000DBCFEAFF0A0EE926000EEA22EF0EDBCF48
:100D3000EEFFF00EDBCFEDFF010EDBCFE9FF020E81
:100D4000DBCFEAFF0C0EE926000EEA22F70EDBCF1E
:100D5000EEFFF80EDBCFEDFFFD0EDB40E840E84094
:100D60001F0BE66E010EDBCFE9FF020EDBCFEAFFC1
:100D7000170EE926000EEA22E552E750EF6EF40E58
:100D8000006E2B0E016E000E026E010EDBCFE9FF2E
:100D9000020EDBCFEAFF170EE926000EEA22EFCFA4
:100DA00003F0046A056A00500324F36E0150042026
:100DB000F46E02500520F86EF4CFF7FFF3CFF6FF84
:100DC0000800F550E66E010EDBCFE9FF020EDBCF27
:100DD000EAFF190EE926000EEA22E552E750EF6E0F
:100DE000FD0EDB50070BE66E010EDBCFE9FF020EB6
:100DF000DBCFEAFF160EE926000EEA22E552E750A5
:100E0000EF6EF40E006E2B0E016E000E026E010EE0
:100E1000DBCFE9FF020EDBCFEAFF160EE926000E5C
:100E2000EA22EFCF03F0046A056A00500324F36E50
:100E300001500420F46E02500520F86EF4CFF7FF45
:100E4000F3CFF6FF0800F550E66E010EDBCFE9FFA9
:100E5000020EDBCFEAFF180EE926000EEA22E55269
:100E6000E750EF6E010EDBCFE6FF020EDBCFE6FFB1
:100E7000D5EC11F0E552E552010EDBCFE6FF020E94
:100E8000DBCFE6FFB5EC11F0E552E552C00EF214EF
:100E9000DF6E800ED0143F09F216FD0EEA6ADB34D5
:100EA000FE0BEA36E96E9C0EE926010EEA22010EDF
:100EB000DBCFEEFF020EDBCFEDFF010EDBCFE9FF54
:100EC000020EDBCFEAFF0E0EE926000EEA229AC1DF
:100ED000EEFF9BC1EDFF010EDBCFE9FF020EDBCF82
:100EE000EAFF100EEB6A110EEB6A01019A519B1199
:100EF0000EE09AC1E9FF9BC1EAFF100EE926000E41
:100F0000EA22010EDBCFEEFF020EDBCFEDFF010E7A
:100F1000DBCF9AF1020EDBCF9BF1010EDBCFE9FFB5
:100F2000020EDBCFEAFF190EE926000EEA22EF508F
:100F300001012713010EDBCFE9FF020EDBCFEAFF31
:100F4000180EE926000EEA22EFCF00F0010EDBCFEB
:100F5000E9FF020EDBCFEAFF170EE926000EEA22B8
:100F6000EF50EA6A280FE96E010EEA220050EF12F4
:100F7000DF50F212000E04D0DF50F212460E00D005
:100F8000E552E552E552E552E5CFDAFFE7CFD9FF6A
:100F90001200D9CFE6FFDACFE6FFE1CFD9FFE2CFEB
:100FA000DAFF070EE12402E3E168E652E16EFD0E8E
:100FB000DBCF00F0016A026A036A0350000AE8AE60
:100FC00002D0D89008D00F0E005C000E0158000E21
:100FD0000258000E035804E3FD0EDB50FF0815E134
:100FE000FC0EDBCF04F0056A066A076A0750000AA8
:100FF000E8AE02D0D89008D00F0E045C000E055861
:10100000000E0658000E075802E32A0E6DD1C00EDE
:10101000F214DF6E800ED0143F09F216FC0EEA6A5D
:10102000DB34FE0BEA36E96E9C0EE926010EEA225D
:10103000EE50ED1005E0DF50F212280E55D154D1DC
:10104000FC0EEA6ADB34FE0BEA36E96E9C0EE926FA
:10105000010EEA22010EEE6EED6ADF50F212FC0E76
:10106000DB40E840E8401F0BE76E040EE7CFDBFFF4
:10107000F40E006E2B0E016E000E026E040EDBCF1E
:1010800003F0046A056A00500324F36E0150042043
:10109000F46E02500520F86EF4CFF7FFF3CFF6FFA1
:1010A0000800060EF5CFDBFFFC0EDB50070BE76EEA
:1010B000030EE7CFDBFFF40E006E2B0E016E000E69
:1010C000026E030EDBCF03F0046A056A00500324AE
:1010D000F36E01500420F46E02500520F86EF4CF38
:1010E000F7FFF3CFF6FF0800050EF5CFDBFFC00ECC
:1010F000F214DF6E800ED0143F09F216FD0EDB50A5
:10110000FF080AE194C1E9FF95C1EAFF150EEB5013
:10111000E76EFD0EE7CFDBFFFD0EEA6ADB34FE0B68
:10112000EA36E96E9C0EE926010EEA22010EEECFA8
:10113000DBFF020EEDCFDBFFD950010FE96E000E91
:10114000DA20EA6EEE50ED1001E1BED0FD0EEA6A43
:10115000DB34FE0BEA36E96E9C0EE926010EEA222C
:10116000EE6AED6A010EDBCFE9FF020EDBCFEAFF8C
:10117000180EE926000EEA22EFCF00F0010EDBCFB9
:10118000E9FF020EDBCFEAFF170EE926000EEA2286
:10119000EF50EA6A280FE96E010EEA22EF500014C0
:1011A0003BE0010EDBCFE9FF020EDBCFEAFF180EBA
:1011B000E926000EEA22EF1C006E010EDBCFE9FFEC
:1011C000020EDBCFEAFF170EE926000EEA22EF50EF
:1011D000EA6A280FE96E010EEA220050EF16EF507E
:1011E0000DE1010EDBCFE9FF020EDBCFEAFF190EA6
:1011F000E926000EEA22EF1C01012717060EDB503C
:1012000001012713040EDB50EA6A280FE96E010E74
:10121000EA22050EDB50EF12FC0EEA6ADB34FE0B0D
:10122000EA36E96E9C0EE926010EEA22010EDBCFBA
:10123000EEFF020EDBCFEDFF010EDBCFE9FF020E6A
:10124000DBCFEAFF150EE926000EEA22FC0EDBCF0B
:10125000EFFF010EDBCFE9FF020EDBCFEAFF170E37
:10126000E926000EEA22040EDBCFEFFF010EDBCFF2
:10127000E9FF020EDBCFEAFF160EE926000EEA2296
:10128000030EDBCFEFFF010EDBCFE9FF020EDBCF5A
:10129000EAFF190EE926000EEA22060EDBCFEFFF69
:1012A000010EDBCFE9FF020EDBCFEAFF180EE926C5
:1012B000000EEA22050EDBCFEFFFDF50F21263ECE7
:1012C00004F0000E11D010D0FC0EEA6ADB34FE0BE5
:1012D000EA36E96E9C0EE926010EEA22EE6AED6A14
:1012E000DF50F212290E00D0D9CFE1FFDACFE2FFB2
:1012F000E552E5CFDAFFE7CFD9FF1200D9CFE6FFFD
:10130000DACFE6FFE1CFD9FFE2CFDAFFE652E652CD
:10131000E652E652F60EDBCF00F0016A026A036A7B
:10132000000E0318E8AE02D0033409D00F0ED880A7
:101330000054000E0154000E0254000E035402E249
:101340002A0EA3D0C00EF214DF6E800ED0143F0917
:10135000F216F60EEA6ADB34FE0BEA36E96E9C0EF4
:10136000E926010EEA22EE50ED1001E08AD0F60ED9
:10137000EA6ADB34FE0BEA36E96E9C0EE926010EC2
:10138000EA22010EEE6EED6ADF50F212000EE66EFA
:10139000E66AF70EDBCFE6FFF80EDBCFE6FFF90ECD
:1013A000DBCFE6FFFA0EDBCFE6FFFB0EDBCFE6FF7F
:1013B000FC0EDBCFE6FFFD0EDBCFE6FFABEC10F063
:1013C000F56E090EE15C02E2E16AE552E16EF5506C
:1013D000DE52F3CFDEFFF4CFDDFFDD52000EE66E0E
:1013E000E66A000EE66EE66AE66AE66AE66AE66ABB
:1013F000000EE66EE66A000EE66EE66A010EDBCFD0
:10140000E6FF020EDBCFE6FFF60EDBCFE6FFF6ECE3
:1014100005F0F56E0F0EE15C02E2E16AE552E16E65
:10142000F550E76E030EE7CFDBFF030EDB5011E153
:10143000C00EF214DF6E800ED0143F09F2160101C7
:101440002B2BDF50F21201012A0502E163EC04F0BC
:1014500015D0C00EF214DF6E800ED0143F09F216C4
:10146000F60EEA6ADB34FE0BEA36E96E9C0EE926DC
:10147000010EEA22EE6AED6ADF50F212030EDB5033
:1014800004D0DF50F212280E00D0D9CFE1FFDACF1E
:10149000E2FFE552E5CFDAFFE7CFD9FF1200D9CF5F
:1014A000E6FFDACFE6FFE1CFD9FFE2CFDAFFE6527F
:1014B000E652E652E652F60EDBCF00F0016A026A0F
:1014C000036A000E0318E8AE02D0033409D00F0EF1
:1014D000D8800054000E0154000E0254000E035434
:1014E00002E22A0EDBD0C00EF214DF6E800ED014A2
:1014F0003F09F216F60EEA6ADB34FE0BEA36E96EB5
:101500009C0EE926010EEA22EE50ED1001E0C2D059
:10151000F60EEA6ADB34FE0BEA36E96E9C0EE9262B
:10152000010EEA22010EEE6EED6ADF50F212EA0EB3
:10153000DB50010B04E1EA0EDB50020B17E0EE0E6C
:10154000DBCFE6FFEF0EDBCFE6FFE66AF70EDBCF81
:10155000E6FFF80EDBCFE6FFDBEC17F0F56E050ECD
:10156000E15C02E2E16AE552E16EF550EA0EDBCFA2
:10157000E6FFEB0EDBCFE6FFF70EDBCFE6FFF80E64
:10158000DBCFE6FFF90EDBCFE6FFFA0EDBCFE6FF9F
:10159000FB0EDBCFE6FFFC0EDBCFE6FFFD0EDBCF65
:1015A000E6FFABEC10F0F56E090EE15C02E2E16AD9
:1015B000E552E16EF550DE52F3CFDEFFF4CFDDFFF2
:1015C000DD52EA0EDBCFE6FFEB0EDBCFE6FFEC0EE3
:1015D000DBCFE6FFED0EDBCFE6FFD950EE0FE96E75
:1015E000FF0EDA20EA6EEECFE6FFEECFE6FFEECF9B
:1015F000E6FFEFCFE6FFF40EDBCFE6FFF50EDBCF25
:10160000E6FFF20EDBCFE6FFF30EDBCFE6FF010EC7
:10161000DBCFE6FF020EDBCFE6FFF60EDBCFE6FF09
:10162000F6EC05F0F56E0F0EE15C02E2E16AE552C0
:10163000E16EF550E76E030EE7CFDBFF030EDB50E4
:1016400011E1C00EF214DF6E800ED0143F09F216C5
:1016500001012B2BDF50F21201012A0502E163EC9C
:1016600004F015D0C00EF214DF6E800ED0143F09C6
:10167000F216F60EEA6ADB34FE0BEA36E96E9C0ED1
:10168000E926010EEA22EE6AED6ADF50F212030E3D
:10169000DB5004D0DF50F212280E00D0D9CFE1FF8A
:1016A000DACFE2FFE552E5CFDAFFE7CFD9FF12004C
:1016B000D9CFE6FFDACFE6FFE1CFD9FFE2CFDAFFFD
:1016C000E652E652E652FD0EDBCF00F0016A026AF6
:1016D000036A0350000AE8AE02D0D89008D00F0E7B
:1016E000005C000E0158000E0258000E035802E381
:1016F0002A0E83D0C00EF214DF6E800ED0143F0984
:10170000F216FD0EEA6ADB34FE0BEA36E96E9C0E39
:10171000E926010EEA22010EEECFDBFF020EEDCF2D
:10172000DBFFD950010FE96E000EDA20EA6EEE50B1
:10173000ED1004E1DF50F212640E5FD0010EDBCF3A
:10174000E9FF020EDBCFEAFF140EE926000EEA22C3
:10175000EF50080B4EE0010EDBCFE9FF020EDBCFAE
:10176000EAFF140EE926000EEA22EF96EF503DE163
:10177000010EDBCFE9FF020EDBCFEAFF120EE926F6
:10178000000EEA22EE50ED1030E1010EDBCFE9FF52
:10179000020EDBCFEAFF190EE926000EEA22EF5017
:1017A00001012713010EDBCFE9FF020EDBCFEAFFB9
:1017B000180EE926000EEA22EFCF00F0010EDBCF73
:1017C000E9FF020EDBCFEAFF170EE926000EEA2240
:1017D000EF50EA6A280FE96E010EEA220050EF127C
:1017E000DF50F21263EC04F002D0DF50F212000E70
:1017F00004D0DF50F212650E00D0E552E552E552FA
:10180000E552E5CFDAFFE7CFD9FF1200D9CFE6FFE7
:10181000DACFE6FFE1CFD9FFE2CFDAFF0D0EE12408
:1018200002E3E168E652E16EFD0EDBCF00F0016AF3
:10183000026A036A000E0318E8AE02D0033409D02E
:101840000F0ED8800054000E0154000E0254000EFA
:10185000035406E2FD0EDB50FF0802E02A0EEAD038
:10186000FB0EDBCFE9FFFC0EDBCFEAFFEE6AEE6A90
:10187000EE6AEE6AFB0EDBCFE9FFFC0EDBCFEAFF80
:10188000040EE926000EEA22EE6AEE6AEE6AEE6ABD
:10189000C00EF214DF6E800ED0143F09F216FD0E5A
:1018A000DB50FF080AE194C1E9FF95C1EAFF150E7C
:1018B000EB50E76EFD0EE7CFDBFFFD0EEA6ADB348F
:1018C000FE0BEA36E96E9C0EE926010EEA22010EB5
:1018D000EECFDBFF020EEDCFDBFFD950010FE96E3B
:1018E000000EDA20EA6EEE50ED1004E1DF50F21245
:1018F0000B0EA0D0010EDBCFE9FF020EDBCFEAFF1B
:101900000A0EE926000EEA22EECF00F0EFCF01F03A
:101910000050010B04E1DF50F212820E8BD0050E55
:10192000DB6A060EDB6A070EDB6A080EDB6A010E55
:10193000DBCFE9FF020EDBCFEAFF060EE926000E41
:10194000EA22090EEECFDBFF0A0EEECFDBFF0B0E15
:10195000EECFDBFF0C0EEECFDBFF010EDBCFE9FF9E
:10196000020EDBCFEAFF040EE926000EEA22030E88
:10197000EECFDBFF040EEDCFDBFFDF50F212030EE4
:10198000DBCFE9FFDB06040EDBCFEAFF01E2DB067B
:10199000EF500CE1D950050FE96E000EDA20EA6E27
:1019A000EE2A000EEE22EE22EE22E9D7FB0EDBCF6E
:1019B000E9FFFC0EDBCFEAFF050EDBCFEEFF060EE4
:1019C000DBCFEEFF070EDBCFEEFF080EDBCFEEFF27
:1019D000090EDBCF04F00A0EDBCF05F00B0EDBCFD8
:1019E00006F00C0EDBCF07F0D950050FE96E000EA4
:1019F000DA20EA6EEE50045C006EEE500558016E7F
:101A0000EE500658026EEE500758036EFB0EDBCF09
:101A1000E9FFFC0EDBCFEAFF040EE926000EEA2206
:101A200000C0EEFF01C0EEFF02C0EEFF03C0EEFFFC
:101A3000000E00D0D9CFE1FFDACFE2FFE552E5CFCB
:101A4000DAFFE7CFD9FF1200D9CFE6FFDACFE6FF02
:101A5000E1CFD9FFE2CFDAFFE652E652E652E65294
:101A6000FD0EDBCF00F0016A026A036A0F0E001858
:101A700005E1015003E1025001E1035002E15B0E78
:101A8000A3D0FD0EDBCF00F0016A026A036A0350A7
:101A9000000AE8AE02D0D89008D00F0E005C000E0D
:101AA0000158000E0258000E035806E3FD0EDB50ED
:101AB000FF0802E02A0E88D0C00EF214DF6E800EFE
:101AC000D0143F09F216FD0EDB50FF080EE194C161
:101AD000E9FF95C1EAFF150EEB50E76EFD0EE7CF6B
:101AE000DBFFDE52010EDD6E11D094C1E9FF95C11E
:101AF000EAFF150EEB50F36EFD0EDB50F35C04E1D4
:101B0000DE52010EDD6E02D0010EDB6AFD0EEA6AC6
:101B1000DB34FE0BEA36E96E9C0EE926010EEA2262
:101B2000020EEECFDBFF030EEDCFDBFFD950020F2D
:101B3000E96E000EDA20EA6EEE50ED1004E1DF509F
:101B4000F2125A0E41D0020EDBCFE9FF030EDBCFBB
:101B5000EAFF180EE926000EEA22EF1C006E020EC4
:101B6000DBCFE9FF030EDBCFEAFF170EE926000EFD
:101B7000EA22EF50EA6A280FE96E010EEA220050CD
:101B8000EF16EF500DE1020EDBCFE9FF030EDBCFC6
:101B9000EAFF190EE926000EEA22EF1C01012717C1
:101BA000020EDBCFE9FF030EDBCFEAFF140EE926BE
:101BB000000EEA22EF86DF50F212010EDB0402E192
:101BC00063EC04F0000E00D0D9CFE1FFDACFE2FFE2
:101BD000E552E5CFDAFFE7CFD9FF1200D9CFE6FF14
:101BE000DACFE6FFE1CFD9FFE2CFDAFFE652D950F4
:101BF000FC0FE96EFF0EDA20EA6E000ED880EE547C
:101C0000000EED5439E2C00EF214DF6E800ED014D7
:101C10003F09F21694C1E9FF95C1EAFF180EEB5097
:101C2000E81C006E94C1E9FF95C1EAFF170EEB5066
:101C3000EA6A280FE96E010EEA220050EF16EF5013
:101C400009E194C1E9FF95C1EAFF190EEB50E81CC8
:101C50000101271794C1E9FF95C1EAFF120EE92699
:101C6000000EEA22FC0EDBCFEEFFFD0EDBCFEDFF18
:101C7000DF50F21263EC04F0E552E552E5CFDAFFF3
:101C8000E7CFD9FF1200D9CFE6FFDACFE6FFE1CFE9
:101C9000D9FFE2CFDAFF060EE12402E3E168E65263
:101CA000E16EFD0EDB50000815E3FC0EDB50000872
:101CB00011E3FB0EDB5000080DE3D950F90FE96E7C
:101CC000FF0EDA20EA6E000ED880EE54000EED54BE
:101CD00001E323D1FC0EDB503B0802E2510E1FD181
:101CE000FB0EDB503B0802E2520E19D1D950F90F1E
:101CF000E96EFF0EDA20EA6EE70ED880EE54030E8E
:101D0000ED5402E2530E0BD1F90EDBCF10F0FA0EB8
:101D1000DBCF11F0126A136A050E1026000E112295
:101D2000000E1222000E1322640E1D6E1E6A1F6A20
:101D3000206A10C018F011C019F012C01AF013C0B8
:101D40001BF026EC17F014C010F015C011F016C0EF
:101D500012F017C013F0E80E1D6E030E1E6E1F6A00
:101D6000206A10C018F011C019F012C01AF013C088
:101D70001BF02AEC18F018C010F019C011F01AC0AE
:101D800012F01BC013F0FD0EDBCF08F0096A0A6ADF
:101D90000B6A100E1D6E0E0E1E6E1F6A206A08C0A2
:101DA00018F009C019F00AC01AF00BC01BF026EC9D
:101DB00017F014C008F015C009F016C00AF017C0DB
:101DC0000BF0FC0EDBCF18F0196A1A6A1B6A3C0E86
:101DD0001D6E1E6A1F6A206A26EC17F00850142434
:101DE000046E09501520056E0A501620066E0B5021
:101DF0001720076EFB0EDBCF0CF00D6A0E6A0F6A20
:101E000004500C24186E05500D20196E06500E203B
:101E10001A6E07500F201B6E640E1D6E1E6A1F6A1D
:101E2000206A26EC17F0145000011025006E1550A2
:101E300000011121016E165000011221026E17508F
:101E400000011321036E00C0DFFF010E01C0DBFFA4
:101E5000020E02C0DBFF030E03C0DBFFD9CFE9FF98
:101E6000DACFEAFFEECF18F0EECF19F0EECF1AF08E
:101E7000EFCF1BF01D6A1E6A010E1F6E206A2AEC4E
:101E800018F0040E18C0DBFF050E19C0DBFFD9CF18
:101E9000E9FFDACFEAFFEECF18F0EECF19F0EECF80
:101EA0001AF0EFCF1BF01D6A1E6A010E1F6E206A2A
:101EB0002AEC18F014C0DEFF15C0DEFF16C0DEFFEE
:101EC00017C0DDFFDD52DD52000EDBCFE6FF010E55
:101ED000DBCFE6FF83DEE552E552D950040FE96E11
:101EE000000EDA20EA6E000ED880EE54000EED549B
:101EF00012E2E66A800EE66E71DEE552E552E66AAF
:101F0000800EE66E6BDEE552E552040EDB06050E32
:101F100001E2DB06E2D7000E02D0540E00D0D9CF8A
:101F2000E1FFDACFE2FFE552E5CFDAFFE7CFD9FFF5
:101F30001200D9CFE6FFDACFE6FFE1CFD9FFE2CF3B
:101F4000DAFFE652E652E652FD0EDBCF00F0016A00
:101F5000026A036A0350000AE8AE02D0D89008D0A3
:101F60000F0E005C000E0158000E0258000E0358C0
:101F700002E32A0E81D0C00EF214DF6E800ED01460
:101F80003F09F216FD0EEA6ADB34FE0BEA36E96E13
:101F90009C0EE926010EEA22010EEECFDBFF020EB7
:101FA000EDCFDBFFD950010FE96E000EDA20EA6EAB
:101FB000EE50ED105DE0010EDBCFE9FF020EDBCF4E
:101FC000EAFF120EE926000EEA22EE50ED104CE078
:101FD000010EDBCFE9FF020EDBCFEAFF120EEB6A48
:101FE000130EEB6A010EDBCFE9FF020EDBCFEAFF37
:101FF000140EE926000EEA22EF50080B30E1010E24
:10200000DBCFE9FF020EDBCFEAFF190EE926000E57
:10201000EA22EF5001012713010EDBCFE9FF020E88
:10202000DBCFEAFF180EE926000EEA22EFCF00F020
:10203000010EDBCFE9FF020EDBCFEAFF170EE92628
:10204000000EEA22EF50EA6A280FE96E010EEA223A
:102050000050EF12DF50F21263EC04F002D0DF50B8
:10206000F212000E09D004D0DF50F212500E04D04C
:10207000DF50F2120B0E00D0E552E552E552E55268
:10208000E5CFDAFFE7CFD9FF1200D9CFE6FFDACFED
:10209000E6FFE1CFD9FFE2CFDAFFE652E652E652A1
:1020A000E652E652C00EF214DF6E800ED0143F09E5
:1020B000F216010EF4C2DBFF020EF5C2DBFF030EC7
:1020C000F6C2DBFF040EF7C2DBFFDF50F212010E97
:1020D000DBCF00F0020EDBCF01F0030EDBCF02F00E
:1020E000040EDBCF03F000C018F001C019F002C0ED
:1020F0001AF003C01BF000D0D9CFE1FFDACFE2FF26
:10210000E552E5CFDAFFE7CFD9FF1200D9CFE6FFDE
:10211000DACFE6FFE1CFD9FFE2CFDAFFE652C00E19
:10212000F214DF6E800ED0143F09F216FA0EDBCFE8
:10213000F4F2FB0EDBCFF5F2FC0EDBCFF6F2FD0E78
:10214000DBCFF7F2DF50F212E552E552E5CFDAFFCE
:06215000E7CFD9FF1200E9
:0A215600D9CFE6FFDACFE6FFE1CFB4
:10216000D9FFE2CFDAFFE652E652F70EDBCFDEFF11
:10217000DBCFDDFFDFCFE9FFDF2A010EDBCFEAFF98
:1021800001E3DB2AF90EDBCFEFFFDFCFE9FFDF2A28
:10219000010EDBCFEAFF01E3DB2AFA0EDBCFEFFF14
:1021A000DFCFE9FFDF2A010EDBCFEAFF01E3DB2A05
:1021B000EF68DFCFE9FFDF2A010EDBCFEAFF01E3A3
:1021C000DB2A1A0EEF6EDFCFE9FFDF2A010EDBCF2D
:1021D000EAFF01E3DB2A1B0EEF6EDFCFE9FFDF2A08
:1021E000010EDBCFEAFF01E3DB2A1C0EEF6EDFCF2F
:1021F000E9FFDF2A010EDBCFEAFF01E3DB2A1D0E38
:10220000EF6EDFCFE9FFDF2A010EDBCFEAFF01E34C
:10221000DB2A1E0EEF6EDFCFE9FFDF2A010EDBCFD8
:10222000EAFF01E3DB2A1F0EEF6EDFCFE9FFDF2AB3
:10223000010EDBCFEAFF01E3DB2A2A0EEF6EDFCFD0
:10224000E9FFDF2A010EDBCFEAFF01E3DB2A2B0ED9
:10225000EF6EDFCFE9FFDF2A010EDBCFEAFF01E3FC
:10226000DB2A2C0EEF6EDFCFE9FFDF2A010EDBCF7A
:10227000EAFF01E3DB2A2D0EEF6EDFCFE9FFDF2A55
:10228000010EDBCFEAFF01E3DB2A2E0EEF6EDFCF7C
:10229000E9FFDF2A010EDBCFEAFF01E3DB2A2F0E85
:1022A000EF6EDFCFE9FFDF2A010EDBCFEAFF01E3AC
:1022B000DB2A3A0EEF6EDFCFE9FFDF2A010EDBCF1C
:1022C000EAFF01E3DB2A3B0EEF6EDFCFE9FFDF2AF7
:1022D000010EDBCFEAFF01E3DB2A3C0EEF6EDFCF1E
:1022E000E9FFDF2A010EDBCFEAFF01E3DB2A3D0E27
:1022F000EF6EDFCFE9FFDF2A010EDBCFEAFF01E35C
:10230000DB2AFB0EDBCFEFFFDFCFE9FFDF2A010E79
:10231000DBCFEAFF01E3DB2AFC0EDBCFEFFFDFCFF1
:10232000E9FFDF2A010EDBCFEAFF01E3DB2AFD0E26
:10233000DBCFEFFFDFCFE9FFDF2A010EDBCFEAFFC4
:1023400001E3DB2A010EEF6EDECF00F0DDCF01F0FE
:1023500000C0F3FF01C0F4FF00D0E552E552E552A2
:10236000E5CFDAFFE7CFD9FF1200D9CFE6FFDACF0A
:10237000E6FFE1CFD9FFE2CFDAFFE552E5CFDAFFA2
:10238000E7CFD9FF1200D9CFE6FFDACFE6FFE1CFE2
:10239000D9FFE2CFDAFFE552E5CFDAFFE7CFD9FF89
:1023A00012000400120012001200D9CFE6FFDACFAB
:1023B000E6FFE1CFD9FFE2CFDAFFE552E5CFDAFF62
:1023C000E7CFD9FF1200120012001200EADF01016C
:1023D000010E2A6F98C1E9FF99C1EAFFEECFE1FF34
:1023E000EDCFE2FF1F0EFC1402E00600FBD7FC500D
:1023F00001E0FC6AE552E550E96E0500E550FF6E2C
:10240000E550FE6EE550FD6EE906F7E1E5CF1BF005
:10241000E5CF1AF0E5CF19F0E5CF18F0E5CFF4FFDE
:10242000E5CFF3FFE5CFF8FFE5CFF7FFE5CFF6FF08
:10243000E5CFDAFFE7CFD9FFE552E5CFEAFFE5CFF9
:10244000E9FFE550E5CFE0FFE5CFD8FF100012002F
:10245000800ED0143F09F216D8CFE4FFE0CFE4FF9E
:10246000E46EE9CFE4FFEACFE4FFE652D9CFE6FF1E
:10247000DACFE6FFF6CFE6FFF7CFE6FFF8CFE6FFCD
:10248000F3CFE6FFF4CFE6FF18C0E6FF19C0E6FF82
:102490001AC0E6FF1BC0E6FFE96A1F0EFC1409E044
:1024A000FDCFE6FFFECFE6FFFFCFE6FF0600E92AFD
:1024B000F4D7E9CFE6FFFC5001E0FC6A94C1E9FFE4
:1024C00095C1EAFFE1CFEEFFE2CFEDFF6ADF98C1F1
:1024D00094F199C195F126C125F198C1E9FF99C1FF
:1024E000EAFFEECFE1FFEDCFE2FFE552E550E96E06
:1024F0000500E550FF6EE550FE6EE550FD6EE90605
:10250000F7E1E5CF1BF0E5CF1AF0E5CF19F0E5CF05
:1025100018F0E5CFF4FFE5CFF3FFE5CFF8FFE5CF07
:10252000F7FFE5CFF6FFE5CFDAFFE7CFD9FFE552BA
:10253000E5CFEAFFE5CFE9FFE550E5CFE0FFE5CFE6
:10254000D8FF10001200D8CFE4FFE0CFE4FFE46E24
:10255000E9CFE4FFEACFE4FFE652D9CFE6FFDACFD6
:10256000E6FFF6CFE6FFF7CFE6FFF8CFE6FFF3CFC3
:10257000E6FFF4CFE6FF18C0E6FF19C0E6FF1AC079
:10258000E6FF1BC0E6FF0101222BBAEC18F090EC2D
:1025900000F0E552E5CF1BF0E5CF1AF0E5CF19F0DA
:1025A000E5CF18F0E5CFF4FFE5CFF3FFE5CFF8FF77
:1025B000E5CFF7FFE5CFF6FFE5CFDAFFE7CFD9FFAD
:1025C000E552E5CFEAFFE5CFE9FFE550E5CFE0FFD3
:1025D000E5CFD8FF1000120006000600E552E552D4
:1025E000E552E96A1F0EFC1409E0FDCFE6FFFECFBD
:1025F000E6FFFFCFE6FF0600E92AF4D7E9CFE6FFC2
:10260000FC5001E0FC6A94C1E9FF95C1EAFFE1CF0B
:10261000EEFFE2CFEDFFC5DE98C194F199C195F1CF
:1026200026C125F198C1E9FF99C1EAFFEECFE1FF8C
:10263000EDCFE2FF1F0EFC1402E00600FBD7FC50BA
:1026400001E0FC6AE552E550E96E0500E550FF6ED9
:10265000E550FE6EE550FD6EE906F7E1E5CF1BF0B3
:10266000E5CF1AF0E5CF19F0E5CF18F0E5CFF4FF8C
:10267000E5CFF3FFE5CFF8FFE5CFF7FFE5CFF6FFB6
:10268000E5CFDAFFE7CFD9FFE552E5CFEAFFE5CFA7
:10269000E9FFE550E5CFE0FFE5CFD8FF10001200DD
:1026A000020EE66EC7EC18F0E55212000F0EE66E51
:1026B0009CEC18F0E5521200050EE66E9CEC18F04A
:1026C000E5521200D9CFE6FFDACFE6FFE1CFD9FF1E
:1026D000E2CFDAFF1A0EE12402E3E168E652E16E8E
:1026E000280EE66E7EEC16F0E55286EC18F0000936
:1026F00001E0FBD70C0EE66EB2EC17F0E55286EC6B
:1027000018F0000901E0FBD7010EE66EB2EC17F0FD
:10271000E55286EC18F0000901E0FBD7060EE66EE4
:10272000B2EC17F0E55286EC18F0000901E0FBD797
:10273000E66A5EEC17F0E552240EE66E040EE66ED5
:1027400003EC18F0E552E55245EC10F0150E18C0F8
:10275000DBFF160E19C0DBFF170E1AC0DBFF180EC9
:102760001BC0DBFFD9CFE6FFDACFE6FFD950150F4C
:10277000E96E000EDA20EA6EEECFE6FFEECFE6FF5E
:10278000EECFE6FFEFCFE6FF3DEC15F0F56E060E5F
:10279000E15C02E2E16AE552E16EF550D950110FB9
:1027A000E66EDACFE6FFB4C0E6FFBCEC14F0E5520B
:1027B000E552E55286EC18F0000901E0FBD7400E27
:1027C000E66E5EEC17F0E552D9CFE6FFDACFE6FF12
:1027D00003EC18F0E552E55286EC18F0000901E030
:1027E000FBD74E0EE66E5EEC17F0E552D950110F96
:1027F000E66EDACFE6FF03EC18F0E552E552D95069
:10280000110FE66EDACFE6FFF5EC17F0E552E55270
:10281000F3CF00F0F4CF01F0020E005C000E01587F
:102820000AE286EC18F0000901E0FBD7200EE66E04
:1028300089EC17F0E5520A0EE66EE66AEEEC0DF052
:10284000E552E55281D7D9CFE1FFDACFE2FFE55279
:10285000E5CFDAFFE7CFD9FF1200D9CFE6FFDACF15
:10286000E6FFE1CFD9FFE2CFDAFFE652E6520E0EE5
:10287000C16E7F0EF16EF06A9F0EE66E6AEC18F084
:10288000E552F00EE66ED80EE66E4EEC18F0E5520C
:10289000E552E3EC01F0010EE66E5C0EE66E030E0F
:1028A000E66E000EE66EE66AC40EE66E260EE66E74
:1028B000000EE66E7EEC09F0F56E080EE15C02E2B9
:1028C000E16AE552E16EF550816A93969394FC0EAD
:1028D000DBCFE9FFFD0EDBCFEAFFEECFDEFFEDCF72
:1028E000DDFF81768150080B02E0819401D0818464
:1028F000640EE66EE66AEEEC0DF0E552E552F1D7B5
:10290000E552E552E552E5CFDAFFE7CFD9FF1200F5
:10291000D9CFE6FFDACFE6FFE1CFD9FFE2CFDAFF8A
:10292000E652E652CD0EDE6EAB0EDD6EF29E70EC20
:1029300000F0E66AF80EE66E020EE66ED9CFE6FF0C
:10294000DACFE6FF5A0EE66E280EE66E000EE66E51
:102950007EEC09F0F56E080EE15C02E2E16AE552F8
:10296000E16EF55072EC01F0E552E552E552E5CF2B
:08297000DAFFE7CFD9FF1200E6
:08297800D9CFE6FFDACFE6FF3C
:10298000FB0EE3CFD9FFFC0EE3CFDAFFFD0EE352DF
:1029900005E72D0EDE6EFD0EE31EE32AE652E6523B
:1029A000FE0EE124E76EFF0EE220E46EE652F90E21
:1029B000E3CFE6FF1AEC15F0FB0EE124E96EFF0E03
:1029C000E220EA6E0AEC15F004E107EC15F003E1F1
:1029D00004D015EC15F010EC15F015EC15F0DE6ACE
:1029E000FB0EE126FF0EE222FF0EE3CFDAFFE552F7
:1029F000FF0EE3CFD9FFE552FD0EE124E96EFF0E95
:102A0000E220EA6EEECFF3FFEFCFF4FF1200EF38D3
:102A10000F0B1200EF500F0B02E1EE52D8841200A0
:102A2000EF380F0B300FDE6E1200EE500F0B300F31
:102A3000DE6E1200FD0EE3CFE9FFFE0EE3CFEAFFEC
:102A4000080EE66EEE6AEF6AD890FE0EE336ED36BB
:102A5000EF36FF0EE30606E034EC15F0EE5234ECF0
:102A600015F0F3D7E56E1200030EEF24E8B6EF6E13
:102A7000300EEF24E8BEEF6E000CD9CFE6FFDACFC0
:102A8000E6FFF80EE3CFD9FFF90EE3CFDAFFE65207
:102A9000E652E652E652E652FB0EE124E76EFF0EE6
:102AA000E220E46EE652F30EE3CFE6FFF30EE3CF4F
:102AB000E6FFF30EE3CFE6FFF30EE3CFE6FFC2EC53
:102AC00015F0F50EE124E96EFF0EE220EA6EAFECA0
:102AD00015F019E1B2EC15F018E1AFEC15F017E1C3
:102AE000B2EC15F016E1AFEC15F015E1B2EC15F013
:102AF00014E1AFEC15F013E1B2EC15F012E1AFEC1C
:102B000015F011E112D0B8EC15F0BDEC15F0B8ECF1
:102B100015F0BDEC15F0B8EC15F0BDEC15F0B8EC07
:102B200015F0BDEC15F0B8EC15F0BDEC15F0DE6A53
:102B3000F50EE126FF0EE222FF0EE3CFDAFFE552AB
:102B4000FF0EE3CFD9FFE552FA0EE124E96EFF0E46
:102B5000E220EA6EEECFF3FFEFCFF4FF1200EF3882
:102B60000F0B1200EF500F0B02E1EE52D88412004F
:102B7000EF380F0B300FDE6E1200EE500F0B300FE0
:102B8000DE6E1200FA0EE3CFE9FFFB0EE3CFEAFFA1
:102B9000200EE66EEE6AEE6AEE6AEE6AEF6AD89092
:102BA000FB0EE336FC0EE336FD0EE336FE0EE33697
:102BB000ED36ED36ED36ED36EF36FF0EE3060FE07F
:102BC000F1EC15F0EE52F1EC15F0EE52F1EC15F0DF
:102BD000EE52F1EC15F0EE52F1EC15F0E1D7E56EA6
:102BE0001200030EEF24E8B6EF6E300EEF24E8BEBD
:042BF000EF6E000C78
:0C2BF400010204081020408000000100D5
:102C000002000100030001000200010004000100B5
:102C100002000100030001000200010005000100A4
:102C20000200010003000100020001000400010095
:102C30000200010003000100020001000600010083
:102C40000200010003000100020001000400010075
:102C50000200010003000100020001000500010064
:102C60000200010003000100020001000400010055
:102C70000200010003000100020001000700010042
:102C80000200010003000100020001000400010035
:102C90000200010003000100020001000500010024
:102CA0000200010003000100020001000400010015
:102CB0000200010003000100020001000600010003
:102CC00002000100030001000200010004000100F5
:102CD00002000100030001000200010005000100E4
:102CE00002000100030001000200010004000100D5
:0C2CF000020001000300010002000100CE
:042CFC00D9CFE6FF47
:102D0000DACFE6FFE1CFD9FFE2CFDAFFF00E81168E
:102D10000F0E9312939C939A9398819C819A819819
:102D200056EC13F0F00E93162ED82DD82CD8811611
:102D30008182818850EC13F081980F0E931233D862
:102D4000FEE1FD0EDBCFE6FFB2EC17F0E5522BD82B
:102D5000FEE1080E23D827D8FEE10F0E1FD823D896
:102D6000FEE1010E1BD81FD8FEE1130E17D81BD8A9
:102D7000FEE1E66A5EEC17F0E552E552E5CFDAFFD8
:102D8000E7CFD9FF12008116030E8112818850EC23
:102D900013F081985CEC13F0F00E1200E66EB2ECCA
:0E2DA00017F0E552120086EC18F00009120040
:022DAE002A0EEB
:102DB000F66E000EF76E000EF86E04010900F55075
:102DC0003A6F0900F5503B6F03E13A6701D03DD0FF
:102DD0000900F550356F0900F550366F0900F550C0
:102DE000376F09000900F550E96E0900F550EA6EE9
:102DF000090009000900F550386F0900F550396FD6
:102E000009000900F6CF3CF4F7CF3DF4F8CF3EF4CB
:102E100035C4F6FF36C4F7FF37C4F8FF0401385352
:102E200002E1395307E00900F550EE6E3807F8E289
:102E30003907F9D73CC4F6FF3DC4F7FF3EC4F8FF9D
:0C2E400004013A07000E3B5BBFD71200F4
:042E4C0018501D02FB
:102E5000F3CF14F0F4CF15F01E02F3501526000E38
:102E6000F420166E18501F02F3501626000EF420A0
:102E7000176E18502002F350172619501D02F350F8
:102E80001526F4501622000E172219501E02F35078
:102E90001626F450172219501F02F35017261A5005
:102EA0001D02F3501626F45017221A501E02F3503A
:0C2EB00017261B501D02F35017261200BD
:042EBC00D9CFE6FF85
:102EC000DACFE6FFE1CFD9FFE2CFDAFFF00E9316BB
:102ED0008116FD0EDB508009E8380F0B0F0B8112B5
:102EE000819C819A0FD8F00E8116FD0EDB500F0BDE
:102EF000811208D80F0E9312E552E5CFDAFFE7CF23
:102F0000D9FF120050EC13F0818850EC13F0819837
:022F10001200AD
:0E2F1200D9CFE6FFDACFE6FFE1CFD9FFE2CF5D
:102F2000DAFFF00E93168116FD0EDB380F0B0F0B38
:102F30008112818A819C0FD8F00E8116FD0EDB5024
:102F40000F0B811208D80F0E9312E552E5CFDAFF6E
:102F5000E7CFD9FF120050EC13F0818850EC13F04A
:042F60008198120042
:0C2F6400D9CFE6FFDACFE6FFE1CFD9FFBE
:102F7000E2CFDAFFF00E93168116FD0EDB380F0B51
:102F80000F0B8112819C819A0FD8F00E8116FD0ED5
:102F9000DB500F0B811208D80F0E9312E552E5CFCC
:102FA000DAFFE7CFD9FF120050EC13F0818850EC24
:062FB00013F081981200ED
:0A2FB600FE0EE3CFE9FFFF0EE3CFAC
:102FC000EAFFE9CFF3FFEACFF4FFFB0EE35003E1A2
:102FD000FC0EE35009E0FB0EE30602E2FC0EE30602
:102FE000FD0EE350EE6EF1D71200FE0EE3CFE9FFC7
:102FF000FF0EE3CFEAFFF36AF46AEE5203E0F34A0E
:06300000F42AFBD71200C8
:0A300600D9CFE6FFDACFE6FFE1CFF5
:10301000D9FFE2CFDAFF16D80FE086EC18F00009EE
:10302000FCE110D8E66E89EC17F0E552FC0EDB2AC5
:10303000FD0EF1E3DB2AEFD7E552E5CFDAFFE7CF6C
:10304000D9FF1200FC0EDBCFE9FFFD0EDBCFEAFF5C
:04305000EF5012002B
:0C305400176A166A156A146A200EE76EEF
:10306000D890183619361A361B36143615361636D9
:1030700017361D50145C1E5015581F5016582050FE
:10308000175809E31D50145E1E50155A1F50165A4A
:0C3090002050175A182AE72EE4D712002F
:04309C00D9CFE6FFA3
:1030A000DACFE6FFE1CFD9FFE2CFDAFFE652E65210
:1030B000FC0EDBCFDEFFDBCFDDFF010EDB50D76E7A
:1030C000DF50D66EE552E552E552E5CFDAFFE7CFA5
:0430D000D9FF120012
:0C30D400D9CFE6FFDACFE6FFE1CFD9FF4D
:1030E000E2CFDAFFFD0EDB507F0BD56ED76AD66AD2
:1030F000F294FD0EDBAE02D0F28A01D0F29AD58EA8
:0C310000E552E5CFDAFFE7CFD9FF12005F
:04310C00818C819A97
:1031100050EC13F0818850EC13F081A602D003D854
:10312000010C01D8000C819850EC13F0818850EC10
:0831300013F08198819C12004C
:08313800FF0EE350246E480E67
:1031400001D04C0EE76EE72EFED7E76AE72EFED7DA
:08315000242EF7D70000120045
:0831580010EE80F020EE80F083
:10316000F86A239CA68EA69CD7EC16F088EC14F087
:04317000FDD7120075
:0C317400F2A407D0F294D80ED76EA00E83
:0E318000D66E23EC02F01200E652E55211006A
:02318E00FF0E32
:10319000E350E84E1200000000D000D000D0E82E2E
:0431A000FAD7120048
:0C31A40057656C636F6D652075432F4FFD
:0531B000532D49490008
:00000001FF
